:1000000048EF00F0EA6A0F0EE96EEF50D8B416EF31
:1000100000F0060E016E006A002EFED7012EFBD7FF
:100020007B0E006E002EFED7EF2EF3D793EF00F07D
:10003000016A026A006A036A135002E1125018E072
:10004000100E146ED8901036113600360336135049
:10005000035C02E11250005C07E31250005ED8A07E
:1000600003061350035ED88001360236142EEAD7F9
:1000700012000E501002F3CF01F0F4CF00F0110285
:10008000F35000260F501002F3500020026E1200B1
:10009000F86AD09E096A640E086EC180C182C1846C
:1000A000C196070EB46ED26AC180C182C184C19666
:1000B000C2909698C66AD190B50ECD6E000ECA6EEB
:1000C000000ECB6E070EB46E9550956E9650966EE0
:1000D000100E006E002EFED70000B450A19CB56A31
:1000E000D36ACF6ACE6A000094928B82310E006E82
:1000F000002EFED700D094928B92948082A0FDD7E0
:10010000CF6ACE6A0000948082B0FDD7CE500C6ECC
:10011000CFCF0DF00DC00BF00CC00AF0020E0E6E2A
:10012000FA0E0F6E6FD70E2EFBD70B50095C09E34A
:1001300003E108500A5C05E296908D8096928D92BC
:1001400004D096928D7296908D900B5233E10A50A6
:10015000630830E396948D940BC011F00AC010F040
:10016000136A0A0E126E64DF02C005F001C004F0CB
:1001700005C00FF004C00EF0116A0A0E106E79DF90
:1001800001500A5C066E02500B58076E04340E6E66
:1001900005340F6E0E360F360E360F360E360F360E
:1001A000F00E0E1606500E2607500F22936A0EC050
:1001B0008AFF3CD096948D840BC011F00AC010F0D9
:1001C000136A640E126E34DF02C005F001C004F041
:1001D00005C00FF004C00EF0116A640E106E49DF06
:1001E00002C003F001500A5C0E6E02500B580F6EF5
:1001F000116E0EC010F0136A0A0E126E19DF02C0E3
:1002000007F001C006F004340E6E05340F6E0E3692
:100210000F360E360F360E360F36F00E0E1606500F
:100220000E2607500F22936A0EC08AFF5DD7030087
:020000040030CA
:0E00000000220E0E000081000FC00FE00F4026
:00000001FF
;PIC18F458
;CRC=7A00  CREATED="04-mai-22 21:38"
