:1000000000EF01F08E0E006E0FC001F00EC002F086
:10001000036A0152D8A419EF00F002C001F0026A8D
:10002000080E005E0152D8A419EF00F0006A23EF19
:1000300000F0D89001BE22EF00F002360136000633
:1000400019EF00F0019E4DEF01F00E50D8B471D0C1
:10005000006E1250D8B46DD0002604E3810E002645
:1000600068E204D07F0E005E64E363E00FC016F028
:100070001350161A0F8E138E11501502F4CF18F06C
:1000800010501402F4CF03F0F3CF17F01502F35021
:100090001826F4501722000E032211501402F350B8
:1000A0001826F4501722000E026A032202220F5073
:1000B0001502F3501726F4500322000E02220F50AF
:1000C0001402F3500326F4500222000E016A0122AA
:1000D00011501302F3501726F4500322000E02228F
:1000E000012210501302F3500326F4500222000E96
:1000F00001220F501302F3500226F4500122002A6D
:1001000001BE05D017360336023601360006000E52
:1001100017AE0AD0032A02220122015005E1025043
:1001200003E1035001E1002A16BE018E16AE019EC6
:1001300004D0006A016A026A036A5EEF01F08E0E63
:10014000006E0E50005E0FC002F010C001F0028E73
:10015000005209E0D890025202E1015204E002325A
:100160000132002EF7D70FAE05D0011E021E012A64
:10017000D8B4022A67EF01F0EA6A0F0EE96EEF5079
:100180000DE0060E016E006A002EFED7012EFBD791
:100190007B0E006E002EFED7EF2EF3D770EF01F02E
:1001A000016A026A006A036A135002E1125018E001
:1001B000100E146ED89010361136003603361350D8
:1001C000035C02E11250005C07E31250005ED8A00D
:1001D00003061350035ED88001360236142EEAD788
:1001E00012000E501002F3CF01F0F4CF00F0110214
:1001F000F35000260F501002F3500020026E120040
:10020000F86AD09E096A640E086EC180C182C184FA
:10021000C196070EB46ED26AC180C182C184C196F4
:10022000C2909698C66AD190800ED56EB50ECD6EEE
:10023000000ECA6E000ECB6E070EB46E9550956E12
:100240009650966E100E006E002EFED70000B45031
:10025000A19CB56A9D8AC00EF212D36ACF6ACE6A9B
:10026000000094928B82210E006E002EFED7949295
:100270008B92948082B001D0FCD7CF6ACE6A000006
:10028000948082A001D0FCD7CE500C6ECFCF0DF061
:100290000DC00FF00CC00EF0B5D603C011F002C0B7
:1002A00010F001C00FF000C00EF0420E156E600E8F
:1002B000146E650E136E790E126EC7D603C011F060
:1002C00002C010F001C00FF000C00EF038D702C01D
:1002D0000BF001C00AF0020E0E6EFA0E0F6E4CD734
:1002E0000E2EFBD70B50095C09E303E108500A5CB2
:1002F00005E296908D8096928D9204D096928D72A2
:1003000096908D900B5233E10A50630830E3969437
:100310008D940BC011F00AC010F0136A0A0E126E11
:100320003FDF02C005F001C004F005C00FF004C0BB
:100330000EF0116A0A0E106E54DF01500A5C066E50
:1003400002500B58076E04340E6E05340F6E0E36D5
:100350000F360E360F360E360F36F00E0E160650CE
:100360000E2607500F22936A0EC08AFF3CD0969447
:100370008D840BC011F00AC010F0136A640E126E67
:100380000FDF02C005F001C004F005C00FF004C08B
:100390000EF0116A640E106E24DF02C003F00150EB
:1003A0000A5C0E6E02500B580F6E116E0EC010F0EC
:1003B000136A0A0E126EF4DE02C007F001C006F0E6
:1003C00004340E6E05340F6E0E360F360E360F36B1
:1003D0000E360F36F00E0E1606500E2607500F2260
:0A03E000936A0EC08AFF3DD70300A8
:020000040030CA
:0E00000000220E0E000081000FC00FE00F4026
:00000001FF
;PIC18F458
;CRC=2CDD  CREATED="25-févr.-22 16:46"
