:1000000073EF01F08E0E006E12C001F011C002F00D
:10001000036A0152D8A419EF00F002C001F0026A8D
:10002000080E005E0152D8A419EF00F0006A23EF19
:1000300000F0D89001BE22EF00F002360136000633
:1000400019EF00F0019EC3EF01F01150D8B471D048
:10005000006E1550D8B46DD0002604E3810E002642
:1000600068E204D07F0E005E64E363E012C019F022
:100070001650191A128E168E14501802F4CF1BF057
:1000800013501702F4CF03F0F3CF1AF01802F35015
:100090001B26F4501A22000E032214501702F350AC
:1000A0001B26F4501A22000E026A0322022212506A
:1000B0001802F3501A26F4500322000E02221250A6
:1000C0001702F3500326F4500222000E016A0122A7
:1000D00014501602F3501A26F4500322000E022286
:1000E000012213501602F3500326F4500222000E90
:1000F000012212501602F3500226F4500122002A67
:1001000001BE05D01A360336023601360006000E4F
:100110001AAE0AD0032A02220122015005E1025040
:1001200003E1035001E1002A19BE018E19AE019EC0
:1001300004D0006A016A026A036AD4EF01F08E0EED
:10014000006E1150005E12C002F013C001F0028E6A
:10015000005209E0D890025202E1015204E002325A
:100160000132002EF7D712AE05D0011E021E012A61
:10017000D8B4022ADDEF01F0EA6A120EE96EEF5000
:100180000DE0060E016E006A002EFED7012EFBD791
:100190007B0E006E002EFED7EF2EF3D7E6EF01F0B8
:1001A000EACF19F0E9CF18F012AE08D0188E18A8CF
:1001B000182A111E121E112AD8B4122A1238F00958
:1001C000146E1426E20F156E320F176E12500F0BBD
:1001D000152615261726E90F166E1626162611382F
:1001E0000F0B1626172616361736171E1736115000
:1001F0000F0B17261436070E136E0A0E1606172657
:10020000FDE315061626FDE314061526FDE3130689
:100210001426FDE3EA6A130EE96E070E1814189C03
:10022000ED52181407E118B8EE5218B803D0200E9A
:10023000006E20D0E926000EEA22E950170803E1FB
:10024000EA5201E1188CEF50006E08E118BC06D0AC
:1002500018B814D018B602D0200E0BD018AE06D0A5
:100260002D0E006EED50189C189E04D0188618981C
:10027000300E002600509EA8FED7AD6EEE5018AC92
:10028000DCD7FFEF01F0016A026A006A036A1650C8
:1002900002E1155018E0100E176ED8901336143680
:1002A000003603361650035C02E11550005C07E38C
:1002B0001550005ED8A003061650035ED8800136A4
:1002C0000236172EEAD7120011501302F3CF01F0B5
:1002D000F4CF00F01402F350002612501302F35032
:1002E0000020026E1200F86AD09E066A810EAF6E80
:1002F000A60EAC6E900EAB6E0C6A640E0B6EC180D7
:10030000C182C184C196070EB46E046A056AD26ABE
:10031000C180C182C184C196C2909698C66AD190AC
:10032000B50ECD6E000ECA6E000ECB6E070EB46E0B
:100330009550956E9650966E100E006E002EFED75C
:100340000000B450A19CB56AD36ACF6ACE6A00009F
:1003500094908B80310E006E002EFED700D09490CA
:100360008B90948282A2FDD7CF6ACE6A00009482DD
:1003700082B2FDD7CE500F6ECFCF10F010C012F06A
:100380000FC011F03FD603C014F002C013F001C03B
:1003900012F000C011F0CD0E186ECC0E176E4C0E80
:1003A000166E790E156E51D603C014F002C013F00C
:1003B00001C012F000C011F0C2D602C00EF001C0A0
:1003C0000DF0020E116EFA0E126ED6D6112EFBD75C
:1003D0000E500C5C09E303E10B500D5C05E29692B4
:1003E0008D8296908D9004D096908D7096928D927D
:1003F000100EE96E0EC012F00DC011F0D1D60A0E2B
:100400009EA8FED7AD6E0E5233E10D50630830E367
:1004100096948D940EC014F00DC013F0166A0A0E57
:10042000156E31DF02C008F001C007F008C012F0FD
:1004300007C011F0146A0A0E136E46DF01500D5CFE
:10044000096E02500E580A6E0734116E0834126E8F
:10045000113612361136123611361236F00E1116CA
:10046000095011260A501222936A11C08AFF29D01E
:1004700096948D840EC014F00DC013F0166A640EAD
:10048000156E01DF02C008F001C007F008C012F0CD
:1004900007C011F0146A640E136E16DF02C003F079
:1004A00001500D5C116E02500E58126E146E11C088
:1004B00013F0166A0A0E156EE6DE02C00AF001C0DD
:0604C00009F046D703001D
:020000040030CA
:0E00000000220E0E000081000FC00FE00F4026
:00000001FF
;PIC18F458
;CRC=E64F  CREATED="11-mai-22 17:04"
